:100000008316860143308500831207309F008601E6
:100010007F30860052200930860052201930860039
:100020005220293086005220463086005220860118
:1000300052207F30860052204930860052204930BD
:1000400086005220493086005220413086005220DE
:10005000860152207F3086005220023086005220D6
:100060000430860052200230860052207F30860005
:100070005220860152206130860052205130860085
:1000800052204930860052204530860052204330AD
:1000900086005220860152207D3086005220860143
:1000A0005B2008286F30A1000330A000A00B562869
:1000B000A10B54280800FF30A2006130A300A30B5D
:0800C0005F28A20B5D28080077
:00000001FF
