:020000040000FA
:10000000F028FF3FFF3FFF3F8C00030E8D00640090
:100010008E0A03198E03980A0319970A0319960F7B
:100020001828FC3096006C309700793098009114B5
:100030000D0E83008C0E0C0E0B1109008207C134CB
:10004000BE34BE34BE34C134FF34DE348034FE34BA
:10005000FF34DE34BC34BA34B634CE34BD34BE34AE
:10006000AE349634B934F334EB34DB348034FB34BF
:100070008D34AE34AE34AE34B134E134D634B6342B
:10008000B634F934BF34B834B734AF349F34C934DC
:10009000B634B634B634C934CF34B634B634B534E5
:1000A000C334FF34C934C934FF34FF3407309900F6
:1000B00012309400950192019301FC3096000034B7
:1000C000003066001730650000340B118B178B165B
:1000D00081016400D83062008101003405081106F6
:1000E0001039031900349106111A00340E088F00DC
:1000F0008E019301920110080F02031C8328023C19
:10010000031C900A0034023E031C900300340530A7
:100110001206FF300319A9280310130D8207140ECD
:100120009A2814089A280A309A28150E9A28150831
:100130009A2800340F399A009A079A079A079A0763
:10014000031DA6289308FF300319A92812081A07CF
:100150001E2086000C301002B520920A06301206CE
:10016000031D00349201930A00349B009B0BB628B8
:100170000800050819060739031900349906643088
:100180009A00FF30B5209A0BC128191DE328991C4D
:10019000CC28191CD22800340A309A00E3209A0B8C
:1001A000CE280034123014060319DD280730140756
:1001B0000730831C01309407003401309400003470
:1001C000911C00349110073015078318E928950A0F
:1001D0000034950060301506031D00349501D228C7
:1001E0005620602065206E208720B920E020F3286B
:0201F000FF3FCF
:02400E00F53F7C
:00000001FF
