:1000000000308A0019280000213084008313000882
:10001000031918280130F800F701F70B0D28F80B29
:100020000C284A30F700F70B13281628800B0A28F3
:100030000034840183131F30830507309F0083162B
:10004000860183128601831686010330831286009F
:10005000A100042083168601043083128600033039
:10006000A1000420831686017830831286000330B5
:10007000A100042083168601043083128600033019
:10008000A100042083168601033083128600A1009C
:10009000042083168601831286010330A100042008
:1000A000831686017C30831286000330A100042071
:1000B000831686011230831286000330A1000420CB
:1000C000831686011130831286000330A1000420BC
:1000D000831686011230831286000330A1000420AB
:1000E000831686017C30831286000330A100042031
:1000F00083168601831286010330A1000420831633
:1001000086012630831286000330A1000420831666
:1001100086014930831286000330A1000420831633
:1001200086014930831286000330A1000420831623
:1001300086015130831286000330A100042083160B
:1001400086012230831286000330A100042083162A
:100150008601831286010330A100042083168601E4
:100160007D30831286000330A100042083168601AF
:10017000831286010330A1000420831686017F309C
:10018000831286000330A100042083168601063006
:10019000831286000330A1000420831686010830F4
:1001A000831286000330A1000420831686013030BC
:1001B000831286000330A1000420831686017F305D
:1001C000831286000330A100042083168601831267
:0C01D00086019630A10004202328630063
:02400E00103F61
:00000001FF
;PIC16F628A
